{
  "contractName": "Accounts",
  "abi": [
    {
      "constant": false,
      "inputs": [],
      "name": "renounceOwnership",
      "outputs": [],
      "payable": false,
      "stateMutability": "nonpayable",
      "type": "function",
      "signature": "0x715018a6"
    },
    {
      "constant": true,
      "inputs": [],
      "name": "owner",
      "outputs": [
        {
          "name": "",
          "type": "address"
        }
      ],
      "payable": false,
      "stateMutability": "view",
      "type": "function",
      "signature": "0x8da5cb5b"
    },
    {
      "constant": true,
      "inputs": [],
      "name": "isOwner",
      "outputs": [
        {
          "name": "",
          "type": "bool"
        }
      ],
      "payable": false,
      "stateMutability": "view",
      "type": "function",
      "signature": "0x8f32d59b"
    },
    {
      "constant": false,
      "inputs": [
        {
          "name": "newOwner",
          "type": "address"
        }
      ],
      "name": "transferOwnership",
      "outputs": [],
      "payable": false,
      "stateMutability": "nonpayable",
      "type": "function",
      "signature": "0xf2fde38b"
    },
    {
      "anonymous": false,
      "inputs": [
        {
          "indexed": false,
          "name": "did",
          "type": "string"
        },
        {
          "indexed": false,
          "name": "addr",
          "type": "address"
        }
      ],
      "name": "userSignedUp",
      "type": "event",
      "signature": "0x230d4ceedebc6ffc6640d73d0fa16916e17b0698891b0593f60e53d11a391df3"
    },
    {
      "anonymous": false,
      "inputs": [
        {
          "indexed": false,
          "name": "did",
          "type": "string"
        },
        {
          "indexed": false,
          "name": "role",
          "type": "uint256"
        },
        {
          "indexed": false,
          "name": "by",
          "type": "address"
        }
      ],
      "name": "userInvited",
      "type": "event",
      "signature": "0x74f566476fee6939d54edca709aa2c8a51a11c55b5de5203c8a2df7ee633e09f"
    },
    {
      "anonymous": false,
      "inputs": [
        {
          "indexed": true,
          "name": "previousOwner",
          "type": "address"
        },
        {
          "indexed": true,
          "name": "newOwner",
          "type": "address"
        }
      ],
      "name": "OwnershipTransferred",
      "type": "event",
      "signature": "0x8be0079c531659141344cd1fd0a4f28419497f9722a3daafe3b4186f6b6457e0"
    },
    {
      "constant": true,
      "inputs": [
        {
          "name": "_userDid",
          "type": "string"
        }
      ],
      "name": "userExists",
      "outputs": [
        {
          "name": "",
          "type": "bool"
        }
      ],
      "payable": false,
      "stateMutability": "view",
      "type": "function",
      "signature": "0xfddc968e"
    },
    {
      "constant": false,
      "inputs": [
        {
          "name": "_userDid",
          "type": "string"
        },
        {
          "name": "_userAddress",
          "type": "address"
        },
        {
          "name": "_role",
          "type": "uint256"
        }
      ],
      "name": "invite",
      "outputs": [],
      "payable": false,
      "stateMutability": "nonpayable",
      "type": "function",
      "signature": "0x77bfd614"
    },
    {
      "constant": false,
      "inputs": [
        {
          "name": "_userDid",
          "type": "string"
        }
      ],
      "name": "signup",
      "outputs": [],
      "payable": false,
      "stateMutability": "nonpayable",
      "type": "function",
      "signature": "0x519c6377"
    },
    {
      "constant": false,
      "inputs": [
        {
          "name": "_userDid",
          "type": "string"
        },
        {
          "name": "_role",
          "type": "uint256"
        }
      ],
      "name": "setUserRole",
      "outputs": [],
      "payable": false,
      "stateMutability": "nonpayable",
      "type": "function",
      "signature": "0x6a6f51a0"
    },
    {
      "constant": true,
      "inputs": [
        {
          "name": "_accountDid",
          "type": "string"
        }
      ],
      "name": "getUser",
      "outputs": [
        {
          "name": "",
          "type": "address"
        },
        {
          "name": "",
          "type": "uint256"
        }
      ],
      "payable": false,
      "stateMutability": "view",
      "type": "function",
      "signature": "0x31feb671"
    }
  ],
  "bytecode": "0x6080604052336000806101000a81548173ffffffffffffffffffffffffffffffffffffffff021916908373ffffffffffffffffffffffffffffffffffffffff1602179055506000809054906101000a900473ffffffffffffffffffffffffffffffffffffffff1673ffffffffffffffffffffffffffffffffffffffff16600073ffffffffffffffffffffffffffffffffffffffff167f8be0079c531659141344cd1fd0a4f28419497f9722a3daafe3b4186f6b6457e060405160405180910390a3611705806100cf6000396000f3fe608060405234801561001057600080fd5b50600436106100b0576000357c01000000000000000000000000000000000000000000000000000000009004806377bfd6141161008357806377bfd614146103415780638da5cb5b146104265780638f32d59b14610470578063f2fde38b14610492578063fddc968e146104d6576100b0565b806331feb671146100b5578063519c6377146101b75780636a6f51a014610272578063715018a614610337575b600080fd5b61016e600480360360208110156100cb57600080fd5b81019080803590602001906401000000008111156100e857600080fd5b8201836020820111156100fa57600080fd5b8035906020019184600183028401116401000000008311171561011c57600080fd5b91908080601f016020809104026020016040519081016040528093929190818152602001838380828437600081840152601f19601f8201169050808301925050505050505091929192905050506105a9565b604051808373ffffffffffffffffffffffffffffffffffffffff1673ffffffffffffffffffffffffffffffffffffffff1681526020018281526020019250505060405180910390f35b610270600480360360208110156101cd57600080fd5b81019080803590602001906401000000008111156101ea57600080fd5b8201836020820111156101fc57600080fd5b8035906020019184600183028401116401000000008311171561021e57600080fd5b91908080601f016020809104026020016040519081016040528093929190818152602001838380828437600081840152601f19601f8201169050808301925050505050505091929192905050506106af565b005b6103356004803603604081101561028857600080fd5b81019080803590602001906401000000008111156102a557600080fd5b8201836020820111156102b757600080fd5b803590602001918460018302840111640100000000831117156102d957600080fd5b91908080601f016020809104026020016040519081016040528093929190818152602001838380828437600081840152601f19601f82011690508083019250505050505050919291929080359060200190929190505050610b66565b005b61033f610d8b565b005b6104246004803603606081101561035757600080fd5b810190808035906020019064010000000081111561037457600080fd5b82018360208201111561038657600080fd5b803590602001918460018302840111640100000000831117156103a857600080fd5b91908080601f016020809104026020016040519081016040528093929190818152602001838380828437600081840152601f19601f820116905080830192505050505050509192919290803573ffffffffffffffffffffffffffffffffffffffff16906020019092919080359060200190929190505050610ec4565b005b61042e61136b565b604051808273ffffffffffffffffffffffffffffffffffffffff1673ffffffffffffffffffffffffffffffffffffffff16815260200191505060405180910390f35b610478611394565b604051808215151515815260200191505060405180910390f35b6104d4600480360360208110156104a857600080fd5b81019080803573ffffffffffffffffffffffffffffffffffffffff1690602001909291905050506113eb565b005b61058f600480360360208110156104ec57600080fd5b810190808035906020019064010000000081111561050957600080fd5b82018360208201111561051b57600080fd5b8035906020019184600183028401116401000000008311171561053d57600080fd5b91908080601f016020809104026020016040519081016040528093929190818152602001838380828437600081840152601f19601f820116905080830192505050505050509192919290505050611471565b604051808215151515815260200191505060405180910390f35b6000806001836040518082805190602001908083835b602083106105e257805182526020820191506020810190506020830392506105bf565b6001836020036101000a038019825116818451168082178552505050505050905001915050908152602001604051809103902060000160009054906101000a900473ffffffffffffffffffffffffffffffffffffffff166001846040518082805190602001908083835b6020831061066f578051825260208201915060208101905060208303925061064c565b6001836020036101000a03801982511681845116808217855250505050505090500191505090815260200160405180910390206001015491509150915091565b6106b761167a565b6002826040518082805190602001908083835b602083106106ed57805182526020820191506020810190506020830392506106ca565b6001836020036101000a03801982511681845116808217855250505050505090500191505090815260200160405180910390206040518060400160405290816000820160009054906101000a900473ffffffffffffffffffffffffffffffffffffffff1673ffffffffffffffffffffffffffffffffffffffff1673ffffffffffffffffffffffffffffffffffffffff1681526020016001820154815250509050600081602001511461099c573373ffffffffffffffffffffffffffffffffffffffff16816000015173ffffffffffffffffffffffffffffffffffffffff161461083e576040517f08c379a00000000000000000000000000000000000000000000000000000000081526004018080602001828103825260148152602001807f596f7520617265206e6f7420616c6c6f7765642100000000000000000000000081525060200191505060405180910390fd5b806001836040518082805190602001908083835b602083106108755780518252602082019150602081019050602083039250610852565b6001836020036101000a038019825116818451168082178552505050505050905001915050908152602001604051809103902060008201518160000160006101000a81548173ffffffffffffffffffffffffffffffffffffffff021916908373ffffffffffffffffffffffffffffffffffffffff160217905550602082015181600101559050506002826040518082805190602001908083835b60208310610932578051825260208201915060208101905060208303925061090f565b6001836020036101000a0380198251168184511680821785525050505050509050019150509081526020016040518091039020600080820160006101000a81549073ffffffffffffffffffffffffffffffffffffffff021916905560018201600090555050610a92565b6109a461167a565b60405180604001604052803373ffffffffffffffffffffffffffffffffffffffff16815260200160018152509050806001846040518082805190602001908083835b60208310610a0957805182526020820191506020810190506020830392506109e6565b6001836020036101000a038019825116818451168082178552505050505050905001915050908152602001604051809103902060008201518160000160006101000a81548173ffffffffffffffffffffffffffffffffffffffff021916908373ffffffffffffffffffffffffffffffffffffffff16021790555060208201518160010155905050505b7f230d4ceedebc6ffc6640d73d0fa16916e17b0698891b0593f60e53d11a391df3823360405180806020018373ffffffffffffffffffffffffffffffffffffffff1673ffffffffffffffffffffffffffffffffffffffff168152602001828103825284818151815260200191508051906020019080838360005b83811015610b27578082015181840152602081019050610b0c565b50505050905090810190601f168015610b545780820380516001836020036101000a031916815260200191505b50935050505060405180910390a15050565b610b6e611394565b610be0576040517f08c379a00000000000000000000000000000000000000000000000000000000081526004018080602001828103825260208152602001807f4f776e61626c653a2063616c6c6572206973206e6f7420746865206f776e657281525060200191505060405180910390fd5b610be861167a565b6002836040518082805190602001908083835b60208310610c1e5780518252602082019150602081019050602083039250610bfb565b6001836020036101000a03801982511681845116808217855250505050505090500191505090815260200160405180910390206040518060400160405290816000820160009054906101000a900473ffffffffffffffffffffffffffffffffffffffff1673ffffffffffffffffffffffffffffffffffffffff1673ffffffffffffffffffffffffffffffffffffffff168152602001600182015481525050905081816020018181525050806002846040518082805190602001908083835b60208310610cff5780518252602082019150602081019050602083039250610cdc565b6001836020036101000a038019825116818451168082178552505050505050905001915050908152602001604051809103902060008201518160000160006101000a81548173ffffffffffffffffffffffffffffffffffffffff021916908373ffffffffffffffffffffffffffffffffffffffff16021790555060208201518160010155905050505050565b610d93611394565b610e05576040517f08c379a00000000000000000000000000000000000000000000000000000000081526004018080602001828103825260208152602001807f4f776e61626c653a2063616c6c6572206973206e6f7420746865206f776e657281525060200191505060405180910390fd5b600073ffffffffffffffffffffffffffffffffffffffff166000809054906101000a900473ffffffffffffffffffffffffffffffffffffffff1673ffffffffffffffffffffffffffffffffffffffff167f8be0079c531659141344cd1fd0a4f28419497f9722a3daafe3b4186f6b6457e060405160405180910390a360008060006101000a81548173ffffffffffffffffffffffffffffffffffffffff021916908373ffffffffffffffffffffffffffffffffffffffff160217905550565b610ecc611394565b610f3e576040517f08c379a00000000000000000000000000000000000000000000000000000000081526004018080602001828103825260208152602001807f4f776e61626c653a2063616c6c6572206973206e6f7420746865206f776e657281525060200191505060405180910390fd5b600073ffffffffffffffffffffffffffffffffffffffff166001846040518082805190602001908083835b60208310610f8c5780518252602082019150602081019050602083039250610f69565b6001836020036101000a038019825116818451168082178552505050505050905001915050908152602001604051809103902060000160009054906101000a900473ffffffffffffffffffffffffffffffffffffffff1673ffffffffffffffffffffffffffffffffffffffff161461106c576040517f08c379a00000000000000000000000000000000000000000000000000000000081526004018080602001828103825260148152602001807f5573657220616c7265616479206578697374732100000000000000000000000081525060200191505060405180910390fd5b600073ffffffffffffffffffffffffffffffffffffffff166002846040518082805190602001908083835b602083106110ba5780518252602082019150602081019050602083039250611097565b6001836020036101000a038019825116818451168082178552505050505050905001915050908152602001604051809103902060000160009054906101000a900473ffffffffffffffffffffffffffffffffffffffff1673ffffffffffffffffffffffffffffffffffffffff161461119a576040517f08c379a00000000000000000000000000000000000000000000000000000000081526004018080602001828103825260158152602001807f5573657220616c726561647920696e766974656421000000000000000000000081525060200191505060405180910390fd5b6111a261167a565b60405180604001604052808473ffffffffffffffffffffffffffffffffffffffff168152602001838152509050806002856040518082805190602001908083835b6020831061120657805182526020820191506020810190506020830392506111e3565b6001836020036101000a038019825116818451168082178552505050505050905001915050908152602001604051809103902060008201518160000160006101000a81548173ffffffffffffffffffffffffffffffffffffffff021916908373ffffffffffffffffffffffffffffffffffffffff160217905550602082015181600101559050507f74f566476fee6939d54edca709aa2c8a51a11c55b5de5203c8a2df7ee633e09f84833360405180806020018481526020018373ffffffffffffffffffffffffffffffffffffffff1673ffffffffffffffffffffffffffffffffffffffff168152602001828103825285818151815260200191508051906020019080838360005b8381101561132957808201518184015260208101905061130e565b50505050905090810190601f1680156113565780820380516001836020036101000a031916815260200191505b5094505050505060405180910390a150505050565b60008060009054906101000a900473ffffffffffffffffffffffffffffffffffffffff16905090565b60008060009054906101000a900473ffffffffffffffffffffffffffffffffffffffff1673ffffffffffffffffffffffffffffffffffffffff163373ffffffffffffffffffffffffffffffffffffffff1614905090565b6113f3611394565b611465576040517f08c379a00000000000000000000000000000000000000000000000000000000081526004018080602001828103825260208152602001807f4f776e61626c653a2063616c6c6572206973206e6f7420746865206f776e657281525060200191505060405180910390fd5b61146e81611536565b50565b60008073ffffffffffffffffffffffffffffffffffffffff166001836040518082805190602001908083835b602083106114c0578051825260208201915060208101905060208303925061149d565b6001836020036101000a038019825116818451168082178552505050505050905001915050908152602001604051809103902060000160009054906101000a900473ffffffffffffffffffffffffffffffffffffffff1673ffffffffffffffffffffffffffffffffffffffff1614159050919050565b600073ffffffffffffffffffffffffffffffffffffffff168173ffffffffffffffffffffffffffffffffffffffff1614156115bc576040517f08c379a00000000000000000000000000000000000000000000000000000000081526004018080602001828103825260268152602001806116ab6026913960400191505060405180910390fd5b8073ffffffffffffffffffffffffffffffffffffffff166000809054906101000a900473ffffffffffffffffffffffffffffffffffffffff1673ffffffffffffffffffffffffffffffffffffffff167f8be0079c531659141344cd1fd0a4f28419497f9722a3daafe3b4186f6b6457e060405160405180910390a3806000806101000a81548173ffffffffffffffffffffffffffffffffffffffff021916908373ffffffffffffffffffffffffffffffffffffffff16021790555050565b6040518060400160405280600073ffffffffffffffffffffffffffffffffffffffff16815260200160008152509056fe4f776e61626c653a206e6577206f776e657220697320746865207a65726f2061646472657373a265627a7a72305820fcee81db51fe77a03a4e4decd25605857e91824f243ea51d287ebcae56b9dd5564736f6c634300050a0032",
  "source": "pragma solidity ^0.5.0;\n\nimport \"@openzeppelin/contracts/math/SafeMath.sol\";\nimport \"@openzeppelin/contracts/ownership/Ownable.sol\";\n\n\ncontract Accounts is Ownable {\n\n    event userSignedUp(string did, address addr);\n    event userInvited(string did, uint256 role, address by);\n\n    /**\n     * Role 1 - Normal User; 2 - ISP; 3 - Region Admin\n     */\n    struct User {\n        address addr;\n        uint256 role;\n    }\n    mapping(string => User) private users;\n    mapping(string => User) private invites;\n\n    /**\n     * @dev Modifier to check if the user is the valid user\n     * by comparing the address in the did registry.\n     */\n    modifier onlyUser(string memory _did) {\n        require(users[_did].addr == msg.sender, \"Your are not the right user.\");\n        _;\n    }\n\n    /**\n     * @dev Verifies if a user is signed.\n     */\n    function userExists(string memory _userDid) public view returns(bool) {\n        return users[_userDid].addr != address(0);\n    }\n\n    /**\n     * @dev The owner can invite other users to have specials roles in the system.\n     */\n    function invite(string memory _userDid, address _userAddress, uint256 _role) public onlyOwner {\n        require(users[_userDid].addr == address(0), \"User already exists!\");\n        require(invites[_userDid].addr == address(0), \"User already invited!\");\n        User memory user = User(_userAddress, _role);\n        invites[_userDid] = user;\n        emit userInvited(_userDid, _role, msg.sender);\n    }\n\n    /**\n     * @dev save msg.sender and uport did in order to be able\n     * to verify if the user authenticity in future transactions.\n     * This is an open method, but might require an invite.\n     */\n    function signup(string memory _userDid) public {\n        User memory invitedUser = invites[_userDid];\n        if (invitedUser.role != 0) {\n            require(invitedUser.addr == msg.sender, \"You are not allowed!\");\n            users[_userDid] = invitedUser;\n            delete invites[_userDid];\n        } else {\n            User memory newUser = User(msg.sender, 1);\n            users[_userDid] = newUser;\n        }\n        emit userSignedUp(_userDid, msg.sender);\n    }\n\n    /**\n     * set user a sepecific role, only by contract owner\n     * @param _userDid user's did\n     * @param _role role id to the user\n     */\n    function setUserRole(string memory _userDid, uint256 _role) public onlyOwner {\n        User memory user = invites[_userDid];\n        user.role = _role;\n        invites[_userDid] = user;\n    }\n\n    /**\n     * get user information\n     * @param _accountDid did of the account\n     */\n    function getUser(string memory _accountDid) public view returns(address, uint256) {\n        return (users[_accountDid].addr, users[_accountDid].role);\n    }\n}\n",
  "sourcePath": "/home/bernardovieira/Documentos/GitHub/connect-ed/ethereum/contracts/Accounts.sol",
  "compiler": {
    "name": "solc",
    "version": "0.5.10+commit.5a6ea5b1.Emscripten.clang"
  },
  "schemaVersion": "3.0.6",
  "updatedAt": "2019-08-14T11:13:45.014Z",
  "devdoc": {
    "methods": {
      "getUser(string)": {
        "params": {
          "_accountDid": "did of the account"
        }
      },
      "invite(string,address,uint256)": {
        "details": "The owner can invite other users to have specials roles in the system."
      },
      "isOwner()": {
        "details": "Returns true if the caller is the current owner."
      },
      "owner()": {
        "details": "Returns the address of the current owner."
      },
      "renounceOwnership()": {
        "details": "Leaves the contract without owner. It will not be possible to call `onlyOwner` functions anymore. Can only be called by the current owner.     * > Note: Renouncing ownership will leave the contract without an owner, thereby removing any functionality that is only available to the owner."
      },
      "setUserRole(string,uint256)": {
        "params": {
          "_role": "role id to the user",
          "_userDid": "user's did"
        }
      },
      "signup(string)": {
        "details": "save msg.sender and uport did in order to be able to verify if the user authenticity in future transactions. This is an open method, but might require an invite."
      },
      "transferOwnership(address)": {
        "details": "Transfers ownership of the contract to a new account (`newOwner`). Can only be called by the current owner."
      },
      "userExists(string)": {
        "details": "Verifies if a user is signed."
      }
    }
  },
  "userdoc": {
    "methods": {
      "getUser(string)": {
        "notice": "get user information"
      },
      "setUserRole(string,uint256)": {
        "notice": "set user a sepecific role, only by contract owner"
      }
    }
  }
}