{
  "contractName": "ISP",
  "abi": [
    {
      "constant": false,
      "inputs": [],
      "name": "renounceOwnership",
      "outputs": [],
      "payable": false,
      "stateMutability": "nonpayable",
      "type": "function",
      "signature": "0x715018a6"
    },
    {
      "constant": true,
      "inputs": [],
      "name": "owner",
      "outputs": [
        {
          "name": "",
          "type": "address"
        }
      ],
      "payable": false,
      "stateMutability": "view",
      "type": "function",
      "signature": "0x8da5cb5b"
    },
    {
      "constant": true,
      "inputs": [],
      "name": "isOwner",
      "outputs": [
        {
          "name": "",
          "type": "bool"
        }
      ],
      "payable": false,
      "stateMutability": "view",
      "type": "function",
      "signature": "0x8f32d59b"
    },
    {
      "constant": false,
      "inputs": [
        {
          "name": "newOwner",
          "type": "address"
        }
      ],
      "name": "transferOwnership",
      "outputs": [],
      "payable": false,
      "stateMutability": "nonpayable",
      "type": "function",
      "signature": "0xf2fde38b"
    },
    {
      "inputs": [
        {
          "name": "_accountsContractAddress",
          "type": "address"
        }
      ],
      "payable": false,
      "stateMutability": "nonpayable",
      "type": "constructor",
      "signature": "constructor"
    },
    {
      "anonymous": false,
      "inputs": [
        {
          "indexed": true,
          "name": "previousOwner",
          "type": "address"
        },
        {
          "indexed": true,
          "name": "newOwner",
          "type": "address"
        }
      ],
      "name": "OwnershipTransferred",
      "type": "event",
      "signature": "0x8be0079c531659141344cd1fd0a4f28419497f9722a3daafe3b4186f6b6457e0"
    },
    {
      "constant": false,
      "inputs": [
        {
          "name": "_region",
          "type": "uint256"
        },
        {
          "name": "_ispDid",
          "type": "string"
        }
      ],
      "name": "setRegionISP",
      "outputs": [],
      "payable": false,
      "stateMutability": "nonpayable",
      "type": "function",
      "signature": "0xd38ee93a"
    },
    {
      "constant": true,
      "inputs": [
        {
          "name": "_region",
          "type": "uint256"
        }
      ],
      "name": "getRegionISP",
      "outputs": [
        {
          "name": "",
          "type": "address"
        }
      ],
      "payable": false,
      "stateMutability": "view",
      "type": "function",
      "signature": "0x31f6716c"
    },
    {
      "constant": false,
      "inputs": [
        {
          "name": "_ipfsHash",
          "type": "string"
        },
        {
          "name": "_md5",
          "type": "string"
        },
        {
          "name": "_ispDid",
          "type": "string"
        },
        {
          "name": "_region",
          "type": "uint256"
        },
        {
          "name": "_timestampStart",
          "type": "uint256"
        },
        {
          "name": "_timestampEnd",
          "type": "uint256"
        }
      ],
      "name": "uploadDataFile",
      "outputs": [],
      "payable": false,
      "stateMutability": "nonpayable",
      "type": "function",
      "signature": "0x53a01865"
    },
    {
      "constant": true,
      "inputs": [],
      "name": "getDataFiles",
      "outputs": [
        {
          "components": [
            {
              "name": "ipfsHash",
              "type": "string"
            },
            {
              "name": "md5",
              "type": "string"
            },
            {
              "name": "isp",
              "type": "address"
            },
            {
              "name": "region",
              "type": "uint256"
            },
            {
              "name": "tsStart",
              "type": "uint256"
            },
            {
              "name": "tsEnd",
              "type": "uint256"
            },
            {
              "name": "tsPush",
              "type": "uint256"
            }
          ],
          "name": "",
          "type": "tuple[]"
        }
      ],
      "payable": false,
      "stateMutability": "view",
      "type": "function",
      "signature": "0x4b046fc2"
    }
  ],
  "bytecode": "0x60806040523480156200001157600080fd5b506040516200189b3803806200189b833981810160405262000037919081019062000152565b336000806101000a81548173ffffffffffffffffffffffffffffffffffffffff021916908373ffffffffffffffffffffffffffffffffffffffff1602179055506000809054906101000a900473ffffffffffffffffffffffffffffffffffffffff1673ffffffffffffffffffffffffffffffffffffffff16600073ffffffffffffffffffffffffffffffffffffffff167f8be0079c531659141344cd1fd0a4f28419497f9722a3daafe3b4186f6b6457e060405160405180910390a380600460006101000a81548173ffffffffffffffffffffffffffffffffffffffff021916908373ffffffffffffffffffffffffffffffffffffffff16021790555050620001cc565b6000815190506200014c81620001b2565b92915050565b6000602082840312156200016557600080fd5b600062000175848285016200013b565b91505092915050565b60006200018b8262000192565b9050919050565b600073ffffffffffffffffffffffffffffffffffffffff82169050919050565b620001bd816200017e565b8114620001c957600080fd5b50565b6116bf80620001dc6000396000f3fe608060405234801561001057600080fd5b50600436106100a5576000357c0100000000000000000000000000000000000000000000000000000000900480638da5cb5b116100785780638da5cb5b1461011e5780638f32d59b1461013c578063d38ee93a1461015a578063f2fde38b14610176576100a5565b806331f6716c146100aa5780634b046fc2146100da57806353a01865146100f8578063715018a614610114575b600080fd5b6100c460048036036100bf9190810190610f3c565b610192565b6040516100d191906113ae565b60405180910390f35b6100e26101cf565b6040516100ef91906113c9565b60405180910390f35b610112600480360361010d9190810190610e6b565b6103f0565b005b61011c61067b565b005b610126610781565b60405161013391906113ae565b60405180910390f35b6101446107aa565b60405161015191906113eb565b60405180910390f35b610174600480360361016f9190810190610f65565b610801565b005b610190600480360361018b9190810190610e06565b610ae5565b005b60006003600083815260200190815260200160002060009054906101000a900473ffffffffffffffffffffffffffffffffffffffff169050919050565b60606001805480602002602001604051908101604052809291908181526020016000905b828210156103e757838290600052602060002090600702016040518060e0016040529081600082018054600181600116156101000203166002900480601f0160208091040260200160405190810160405280929190818152602001828054600181600116156101000203166002900480156102af5780601f10610284576101008083540402835291602001916102af565b820191906000526020600020905b81548152906001019060200180831161029257829003601f168201915b50505050508152602001600182018054600181600116156101000203166002900480601f0160208091040260200160405190810160405280929190818152602001828054600181600116156101000203166002900480156103515780601f1061032657610100808354040283529160200191610351565b820191906000526020600020905b81548152906001019060200180831161033457829003601f168201915b505050505081526020016002820160009054906101000a900473ffffffffffffffffffffffffffffffffffffffff1673ffffffffffffffffffffffffffffffffffffffff1673ffffffffffffffffffffffffffffffffffffffff168152602001600382015481526020016004820154815260200160058201548152602001600682015481525050815260200190600101906101f3565b50505050905090565b8280600260003373ffffffffffffffffffffffffffffffffffffffff1673ffffffffffffffffffffffffffffffffffffffff1681526020019081526020016000205414610472576040517f08c379a000000000000000000000000000000000000000000000000000000000815260040161046990611448565b60405180910390fd5b6000600460009054906101000a900473ffffffffffffffffffffffffffffffffffffffff16905060008173ffffffffffffffffffffffffffffffffffffffff166331feb671886040518263ffffffff167c01000000000000000000000000000000000000000000000000000000000281526004016104f09190611406565b604080518083038186803b15801561050757600080fd5b505afa15801561051b573d6000803e3d6000fd5b505050506040513d601f19601f8201168201806040525061053f9190810190610e2f565b50905061054a610c66565b6040518060e001604052808b81526020018a81526020018373ffffffffffffffffffffffffffffffffffffffff1681526020018881526020018781526020018681526020014281525090506001819080600181540180825580915050906001820390600052602060002090600702016000909192909190915060008201518160000190805190602001906105df929190610cb9565b5060208201518160010190805190602001906105fc929190610cb9565b5060408201518160020160006101000a81548173ffffffffffffffffffffffffffffffffffffffff021916908373ffffffffffffffffffffffffffffffffffffffff160217905550606082015181600301556080820151816004015560a0820151816005015560c0820151816006015550505050505050505050505050565b6106836107aa565b6106c2576040517f08c379a00000000000000000000000000000000000000000000000000000000081526004016106b990611468565b60405180910390fd5b600073ffffffffffffffffffffffffffffffffffffffff166000809054906101000a900473ffffffffffffffffffffffffffffffffffffffff1673ffffffffffffffffffffffffffffffffffffffff167f8be0079c531659141344cd1fd0a4f28419497f9722a3daafe3b4186f6b6457e060405160405180910390a360008060006101000a81548173ffffffffffffffffffffffffffffffffffffffff021916908373ffffffffffffffffffffffffffffffffffffffff160217905550565b60008060009054906101000a900473ffffffffffffffffffffffffffffffffffffffff16905090565b60008060009054906101000a900473ffffffffffffffffffffffffffffffffffffffff1673ffffffffffffffffffffffffffffffffffffffff163373ffffffffffffffffffffffffffffffffffffffff1614905090565b6108096107aa565b610848576040517f08c379a000000000000000000000000000000000000000000000000000000000815260040161083f90611468565b60405180910390fd5b6000600460009054906101000a900473ffffffffffffffffffffffffffffffffffffffff16905060008173ffffffffffffffffffffffffffffffffffffffff166331feb671846040518263ffffffff167c01000000000000000000000000000000000000000000000000000000000281526004016108c69190611406565b604080518083038186803b1580156108dd57600080fd5b505afa1580156108f1573d6000803e3d6000fd5b505050506040513d601f19601f820116820180604052506109159190810190610e2f565b509050600073ffffffffffffffffffffffffffffffffffffffff168173ffffffffffffffffffffffffffffffffffffffff161415610988576040517f08c379a000000000000000000000000000000000000000000000000000000000815260040161097f90611448565b60405180910390fd5b600460009054906101000a900473ffffffffffffffffffffffffffffffffffffffff1673ffffffffffffffffffffffffffffffffffffffff166040516109cd90611399565b60405180910390208460026040516020016109ea93929190611349565b604051602081830303815290604052604051610a069190611382565b600060405180830381855af49150503d8060008114610a41576040519150601f19603f3d011682016040523d82523d6000602084013e610a46565b606091505b50505083600260008373ffffffffffffffffffffffffffffffffffffffff1673ffffffffffffffffffffffffffffffffffffffff16815260200190815260200160002081905550806003600086815260200190815260200160002060006101000a81548173ffffffffffffffffffffffffffffffffffffffff021916908373ffffffffffffffffffffffffffffffffffffffff16021790555050505050565b610aed6107aa565b610b2c576040517f08c379a0000000000000000000000000000000000000000000000000000000008152600401610b2390611468565b60405180910390fd5b610b3581610b38565b50565b600073ffffffffffffffffffffffffffffffffffffffff168173ffffffffffffffffffffffffffffffffffffffff161415610ba8576040517f08c379a0000000000000000000000000000000000000000000000000000000008152600401610b9f90611428565b60405180910390fd5b8073ffffffffffffffffffffffffffffffffffffffff166000809054906101000a900473ffffffffffffffffffffffffffffffffffffffff1673ffffffffffffffffffffffffffffffffffffffff167f8be0079c531659141344cd1fd0a4f28419497f9722a3daafe3b4186f6b6457e060405160405180910390a3806000806101000a81548173ffffffffffffffffffffffffffffffffffffffff021916908373ffffffffffffffffffffffffffffffffffffffff16021790555050565b6040518060e001604052806060815260200160608152602001600073ffffffffffffffffffffffffffffffffffffffff168152602001600081526020016000815260200160008152602001600081525090565b828054600181600116156101000203166002900490600052602060002090601f016020900481019282601f10610cfa57805160ff1916838001178555610d28565b82800160010185558215610d28579182015b82811115610d27578251825591602001919060010190610d0c565b5b509050610d359190610d39565b5090565b610d5b91905b80821115610d57576000816000905550600101610d3f565b5090565b90565b600081359050610d6d8161164e565b92915050565b600081519050610d828161164e565b92915050565b600082601f830112610d9957600080fd5b8135610dac610da7826114b5565b611488565b91508082526020830160208301858383011115610dc857600080fd5b610dd38382846115e7565b50505092915050565b600081359050610deb81611665565b92915050565b600081519050610e0081611665565b92915050565b600060208284031215610e1857600080fd5b6000610e2684828501610d5e565b91505092915050565b60008060408385031215610e4257600080fd5b6000610e5085828601610d73565b9250506020610e6185828601610df1565b9150509250929050565b60008060008060008060c08789031215610e8457600080fd5b600087013567ffffffffffffffff811115610e9e57600080fd5b610eaa89828a01610d88565b965050602087013567ffffffffffffffff811115610ec757600080fd5b610ed389828a01610d88565b955050604087013567ffffffffffffffff811115610ef057600080fd5b610efc89828a01610d88565b9450506060610f0d89828a01610ddc565b9350506080610f1e89828a01610ddc565b92505060a0610f2f89828a01610ddc565b9150509295509295509295565b600060208284031215610f4e57600080fd5b6000610f5c84828501610ddc565b91505092915050565b60008060408385031215610f7857600080fd5b6000610f8685828601610ddc565b925050602083013567ffffffffffffffff811115610fa357600080fd5b610faf85828601610d88565b9150509250929050565b6000610fc58383611280565b905092915050565b610fd681611573565b82525050565b610fe581611573565b82525050565b6000610ff6826114f1565b611000818561152a565b935083602082028501611012856114e1565b8060005b8581101561104e578484038952815161102f8582610fb9565b945061103a8361151d565b925060208a01995050600181019050611016565b50829750879550505050505092915050565b61106981611585565b82525050565b61108061107b82611591565b611629565b82525050565b6000611091826114fc565b61109b818561153b565b93506110ab8185602086016115f6565b80840191505092915050565b60006110c282611512565b6110cc8185611557565b93506110dc8185602086016115f6565b6110e58161163d565b840191505092915050565b60006110fb82611512565b6111058185611568565b93506111158185602086016115f6565b80840191505092915050565b600061112c82611507565b6111368185611546565b93506111468185602086016115f6565b61114f8161163d565b840191505092915050565b6000611167602683611557565b91507f4f776e61626c653a206e6577206f776e657220697320746865207a65726f206160008301527f64647265737300000000000000000000000000000000000000000000000000006020830152604082019050919050565b60006111cd601b83611568565b91507f73657455736572526f6c6528737472696e672c75696e743235362900000000006000830152601b82019050919050565b600061120d600c83611557565b91507f4e6f7420616c6c6f7765642100000000000000000000000000000000000000006000830152602082019050919050565b600061124d602083611557565b91507f4f776e61626c653a2063616c6c6572206973206e6f7420746865206f776e65726000830152602082019050919050565b600060e083016000830151848203600086015261129d8282611121565b915050602083015184820360208601526112b78282611121565b91505060408301516112cc6040860182610fcd565b5060608301516112df6060860182611323565b5060808301516112f26080860182611323565b5060a083015161130560a0860182611323565b5060c083015161131860c0860182611323565b508091505092915050565b61132c816115dd565b82525050565b61134361133e826115dd565b611633565b82525050565b6000611355828661106f565b60048201915061136582856110f0565b91506113718284611332565b602082019150819050949350505050565b600061138e8284611086565b915081905092915050565b60006113a4826111c0565b9150819050919050565b60006020820190506113c36000830184610fdc565b92915050565b600060208201905081810360008301526113e38184610feb565b905092915050565b60006020820190506114006000830184611060565b92915050565b6000602082019050818103600083015261142081846110b7565b905092915050565b600060208201905081810360008301526114418161115a565b9050919050565b6000602082019050818103600083015261146181611200565b9050919050565b6000602082019050818103600083015261148181611240565b9050919050565b6000604051905081810181811067ffffffffffffffff821117156114ab57600080fd5b8060405250919050565b600067ffffffffffffffff8211156114cc57600080fd5b601f19601f8301169050602081019050919050565b6000819050602082019050919050565b600081519050919050565b600081519050919050565b600081519050919050565b600081519050919050565b6000602082019050919050565b600082825260208201905092915050565b600081905092915050565b600082825260208201905092915050565b600082825260208201905092915050565b600081905092915050565b600061157e826115bd565b9050919050565b60008115159050919050565b60007fffffffff0000000000000000000000000000000000000000000000000000000082169050919050565b600073ffffffffffffffffffffffffffffffffffffffff82169050919050565b6000819050919050565b82818337600083830152505050565b60005b838110156116145780820151818401526020810190506115f9565b83811115611623576000848401525b50505050565b6000819050919050565b6000819050919050565b6000601f19601f8301169050919050565b61165781611573565b811461166257600080fd5b50565b61166e816115dd565b811461167957600080fd5b5056fea365627a7a72305820b0b56d7be946c741dc456b01d0f1c3ecb13eaf63ca1fd351db39d25564d4b0cd6c6578706572696d656e74616cf564736f6c634300050a0040",
  "source": "pragma solidity ^0.5.0;\npragma experimental ABIEncoderV2;\n\nimport \"@openzeppelin/contracts/ownership/Ownable.sol\";\nimport \"./Accounts.sol\";\n\n/**\n * Contract to maintain donations\n */\ncontract ISP is Ownable {\n\n    struct DataFile {\n        string ipfsHash;\n        string md5;\n        address isp;\n        uint256 region;\n        uint256 tsStart;\n        uint256 tsEnd;\n        uint256 tsPush;\n    }\n    DataFile[] private dataFiles;\n    mapping(address => uint256) private ispOfRegion;\n    mapping(uint256 => address) private regionISP;\n    address private accountsContractAddress;\n\n    /**\n     * constructor, receiving accounts contract address\n     */\n    constructor(address _accountsContractAddress) public {\n        accountsContractAddress = _accountsContractAddress;\n    }\n\n    /**\n     * modifier to use with isps\n     */\n    modifier onlyISPOfRegion(uint256 _region) {\n        require(ispOfRegion[msg.sender] == _region, \"Not allowed!\");\n        _;\n    }\n\n    /**\n     * set region isp\n     * @param _region region to set isp\n     * @param _ispDid isp's did\n     */\n    function setRegionISP(uint256 _region, string memory _ispDid) public onlyOwner {\n        Accounts accounts = Accounts(accountsContractAddress);\n        (address ispAddress,) = accounts.getUser(_ispDid);\n        require(ispAddress != address(0), \"Not allowed!\");\n        accountsContractAddress.delegatecall(abi.encodePacked(\n            bytes4(keccak256(\"setUserRole(string,uint256)\")), _ispDid, uint256(2)\n        ));\n        ispOfRegion[ispAddress] = _region;\n        regionISP[_region] = ispAddress;\n    }\n\n    /**\n     * get region admin\n     * @param _region region's id\n     */\n    function getRegionISP(uint256 _region) public view returns(address) {\n        return regionISP[_region];\n    }\n\n    /**\n     * isps upload data file about connectivity\n     * @param _ipfsHash hash of the ipfs file location\n     * @param _md5 file's md5\n     * @param _ispDid isp's did\n     * @param _region map region to where the data belongs\n     * @param _timestampStart timestamp of the  data file's start\n     * @param _timestampEnd timestamp of the  data file's end\n     */\n    function uploadDataFile(\n        string memory _ipfsHash,\n        string memory _md5,\n        string memory _ispDid,\n        uint256 _region,\n        uint256 _timestampStart,\n        uint256 _timestampEnd\n    ) public onlyISPOfRegion(_region) {\n        Accounts accounts = Accounts(accountsContractAddress);\n        (address ispAddress,) = accounts.getUser(_ispDid);\n        DataFile memory dataFile = DataFile(_ipfsHash, _md5, ispAddress, _region, _timestampStart, _timestampEnd, block.timestamp);\n        dataFiles.push(dataFile);\n    }\n\n    /**\n     * get the data file array\n     */\n    function getDataFiles() public view returns(DataFile[] memory) {\n        return dataFiles;\n    }\n}\n",
  "sourcePath": "/home/bernardovieira/Documentos/GitHub/unicef_amazonas_challenge/ethereum/contracts/ISP.sol",
  "compiler": {
    "name": "solc",
    "version": "0.5.10+commit.5a6ea5b1.Emscripten.clang"
  },
  "schemaVersion": "3.0.6",
  "updatedAt": "2019-08-13T23:34:05.357Z",
  "devdoc": {
    "methods": {
      "getRegionISP(uint256)": {
        "params": {
          "_region": "region's id"
        }
      },
      "isOwner()": {
        "details": "Returns true if the caller is the current owner."
      },
      "owner()": {
        "details": "Returns the address of the current owner."
      },
      "renounceOwnership()": {
        "details": "Leaves the contract without owner. It will not be possible to call `onlyOwner` functions anymore. Can only be called by the current owner.     * > Note: Renouncing ownership will leave the contract without an owner, thereby removing any functionality that is only available to the owner."
      },
      "setRegionISP(uint256,string)": {
        "params": {
          "_ispDid": "isp's did",
          "_region": "region to set isp"
        }
      },
      "transferOwnership(address)": {
        "details": "Transfers ownership of the contract to a new account (`newOwner`). Can only be called by the current owner."
      },
      "uploadDataFile(string,string,string,uint256,uint256,uint256)": {
        "params": {
          "_ipfsHash": "hash of the ipfs file location",
          "_ispDid": "isp's did",
          "_md5": "file's md5",
          "_region": "map region to where the data belongs",
          "_timestampEnd": "timestamp of the  data file's end",
          "_timestampStart": "timestamp of the  data file's start"
        }
      }
    }
  },
  "userdoc": {
    "methods": {
      "constructor": "constructor, receiving accounts contract address",
      "getDataFiles()": {
        "notice": "get the data file array"
      },
      "getRegionISP(uint256)": {
        "notice": "get region admin"
      },
      "setRegionISP(uint256,string)": {
        "notice": "set region isp"
      },
      "uploadDataFile(string,string,string,uint256,uint256,uint256)": {
        "notice": "isps upload data file about connectivity"
      }
    },
    "notice": "Contract to maintain donations"
  }
}